{
  "_format": "hh-sol-artifact-1",
  "contractName": "DeCryptoFund",
  "sourceName": "contracts/DeCryptoFund.sol",
  "abi": [
    {
      "inputs": [],
      "stateMutability": "payable",
      "type": "constructor"
    },
    {
      "anonymous": false,
      "inputs": [
        {
          "indexed": true,
          "internalType": "address",
          "name": "from",
          "type": "address"
        },
        {
          "indexed": false,
          "internalType": "uint256",
          "name": "timestamp",
          "type": "uint256"
        },
        {
          "indexed": false,
          "internalType": "string",
          "name": "message",
          "type": "string"
        }
      ],
      "name": "NewFunding",
      "type": "event"
    },
    {
      "inputs": [
        {
          "internalType": "string",
          "name": "_message",
          "type": "string"
        }
      ],
      "name": "fund",
      "outputs": [],
      "stateMutability": "nonpayable",
      "type": "function"
    },
    {
      "inputs": [],
      "name": "getAllFundings",
      "outputs": [
        {
          "components": [
            {
              "internalType": "address",
              "name": "funder",
              "type": "address"
            },
            {
              "internalType": "string",
              "name": "message",
              "type": "string"
            },
            {
              "internalType": "uint256",
              "name": "timestamp",
              "type": "uint256"
            }
          ],
          "internalType": "struct DeCryptoFund.Funding[]",
          "name": "",
          "type": "tuple[]"
        }
      ],
      "stateMutability": "view",
      "type": "function"
    },
    {
      "inputs": [],
      "name": "getFundingCount",
      "outputs": [
        {
          "internalType": "uint256",
          "name": "",
          "type": "uint256"
        }
      ],
      "stateMutability": "view",
      "type": "function"
    },
    {
      "inputs": [
        {
          "internalType": "address",
          "name": "",
          "type": "address"
        }
      ],
      "name": "lastFundedAt",
      "outputs": [
        {
          "internalType": "uint256",
          "name": "",
          "type": "uint256"
        }
      ],
      "stateMutability": "view",
      "type": "function"
    }
  ],
  "bytecode": "0x60806040526200004f6040518060400160405280601981526020017f57652068617665206265656e20636f6e737472756374656421000000000000008152506200005560201b620006481760201c565b620001e9565b620000f5816040516024016200006c919062000162565b6040516020818303038152906040527f41304fac000000000000000000000000000000000000000000000000000000007bffffffffffffffffffffffffffffffffffffffffffffffffffffffff19166020820180517bffffffffffffffffffffffffffffffffffffffffffffffffffffffff8381831617835250505050620000f860201b60201c565b50565b60008151905060006a636f6e736f6c652e6c6f679050602083016000808483855afa5050505050565b60006200012e8262000186565b6200013a818562000191565b93506200014c818560208601620001a2565b6200015781620001d8565b840191505092915050565b600060208201905081810360008301526200017e818462000121565b905092915050565b600081519050919050565b600082825260208201905092915050565b60005b83811015620001c2578082015181840152602081019050620001a5565b83811115620001d2576000848401525b50505050565b6000601f19601f8301169050919050565b61110080620001f96000396000f3fe608060405234801561001057600080fd5b506004361061004c5760003560e01c8063186edaff1461005157806372a3143c1461006f57806373451f651461008d5780639e9aac31146100a9575b600080fd5b6100596100d9565b6040516100669190610d92565b60405180910390f35b6100776100e2565b6040516100849190610c8e565b60405180910390f35b6100a760048036038101906100a2919061098b565b610233565b005b6100c360048036038101906100be9190610962565b610630565b6040516100d09190610d92565b60405180910390f35b60008054905090565b60606002805480602002602001604051908101604052809291908181526020016000905b8282101561022a57838290600052602060002090600302016040518060600160405290816000820160009054906101000a900473ffffffffffffffffffffffffffffffffffffffff1673ffffffffffffffffffffffffffffffffffffffff1673ffffffffffffffffffffffffffffffffffffffff16815260200160018201805461018f90610f83565b80601f01602080910402602001604051908101604052809291908181526020018280546101bb90610f83565b80156102085780601f106101dd57610100808354040283529160200191610208565b820191906000526020600020905b8154815290600101906020018083116101eb57829003601f168201915b5050505050815260200160028201548152505081526020019060010190610106565b50505050905090565b42601e600360003373ffffffffffffffffffffffffffffffffffffffff1673ffffffffffffffffffffffffffffffffffffffff168152602001908152602001600020546102809190610eaf565b106102c0576040517f08c379a00000000000000000000000000000000000000000000000000000000081526004016102b790610d72565b60405180910390fd5b42600360003373ffffffffffffffffffffffffffffffffffffffff1673ffffffffffffffffffffffffffffffffffffffff1681526020019081526020016000208190555060016000808282546103169190610eaf565b9250508190555061035c6040518060400160405280601281526020017f2573206861732066756e64656420796f75210000000000000000000000000000815250336106e1565b600260405180606001604052803373ffffffffffffffffffffffffffffffffffffffff16815260200183815260200142815250908060018154018082558091505060019003906000526020600020906003020160009091909190915060008201518160000160006101000a81548173ffffffffffffffffffffffffffffffffffffffff021916908373ffffffffffffffffffffffffffffffffffffffff160217905550602082015181600101908051906020019061041b929190610842565b5060408201518160020155505060006064600154424461043b9190610eaf565b6104459190610eaf565b61044f9190610fb5565b90506104906040518060400160405280601681526020017f52616e646f6d20232067656e6572617465643a202573000000000000000000008152508261077d565b8060018190555060328110156105dc576104df6040518060400160405280600781526020017f257320776f6e2100000000000000000000000000000000000000000000000000815250336106e1565b6000655af3107a400090504781111561052d576040517f08c379a000000000000000000000000000000000000000000000000000000000815260040161052490610d52565b60405180910390fd5b60003373ffffffffffffffffffffffffffffffffffffffff168260405161055390610c79565b60006040518083038185875af1925050503d8060008114610590576040519150601f19603f3d011682016040523d82523d6000602084013e610595565b606091505b50509050806105d9576040517f08c379a00000000000000000000000000000000000000000000000000000000081526004016105d090610d32565b60405180910390fd5b50505b3373ffffffffffffffffffffffffffffffffffffffff167f41e3c92bee255a7eef9768c9eb9d329db26fa63cc6c02f9e463bff1efa8b12424284604051610624929190610dad565b60405180910390a25050565b60036020528060005260406000206000915090505481565b6106de8160405160240161065c9190610cb0565b6040516020818303038152906040527f41304fac000000000000000000000000000000000000000000000000000000007bffffffffffffffffffffffffffffffffffffffffffffffffffffffff19166020820180517bffffffffffffffffffffffffffffffffffffffffffffffffffffffff8381831617835250505050610819565b50565b61077982826040516024016106f7929190610cd2565b6040516020818303038152906040527f319af333000000000000000000000000000000000000000000000000000000007bffffffffffffffffffffffffffffffffffffffffffffffffffffffff19166020820180517bffffffffffffffffffffffffffffffffffffffffffffffffffffffff8381831617835250505050610819565b5050565b6108158282604051602401610793929190610d02565b6040516020818303038152906040527f9710a9d0000000000000000000000000000000000000000000000000000000007bffffffffffffffffffffffffffffffffffffffffffffffffffffffff19166020820180517bffffffffffffffffffffffffffffffffffffffffffffffffffffffff8381831617835250505050610819565b5050565b60008151905060006a636f6e736f6c652e6c6f679050602083016000808483855afa5050505050565b82805461084e90610f83565b90600052602060002090601f01602090048101928261087057600085556108b7565b82601f1061088957805160ff19168380011785556108b7565b828001600101855582156108b7579182015b828111156108b657825182559160200191906001019061089b565b5b5090506108c491906108c8565b5090565b5b808211156108e15760008160009055506001016108c9565b5090565b60006108f86108f384610e0e565b610ddd565b90508281526020810184848401111561091057600080fd5b61091b848285610f41565b509392505050565b600081359050610932816110b3565b92915050565b600082601f83011261094957600080fd5b81356109598482602086016108e5565b91505092915050565b60006020828403121561097457600080fd5b600061098284828501610923565b91505092915050565b60006020828403121561099d57600080fd5b600082013567ffffffffffffffff8111156109b757600080fd5b6109c384828501610938565b91505092915050565b60006109d88383610c0b565b905092915050565b6109e981610f05565b82525050565b6109f881610f05565b82525050565b6000610a0982610e4e565b610a138185610e71565b935083602082028501610a2585610e3e565b8060005b85811015610a615784840389528151610a4285826109cc565b9450610a4d83610e64565b925060208a01995050600181019050610a29565b50829750879550505050505092915050565b6000610a7e82610e59565b610a888185610e8d565b9350610a98818560208601610f50565b610aa1816110a2565b840191505092915050565b6000610ab782610e59565b610ac18185610e9e565b9350610ad1818560208601610f50565b610ada816110a2565b840191505092915050565b6000610af2602783610e9e565b91507f4661696c656420746f207769746864726177206d6f6e65792066726f6d20636f60008301527f6e74726163742e000000000000000000000000000000000000000000000000006020830152604082019050919050565b6000610b58603583610e9e565b91507f547279696e6720746f207769746864726177206d6f7265206d6f6e657920746860008301527f616e207468657920636f6e7472616374206861732e00000000000000000000006020830152604082019050919050565b6000610bbe600083610e82565b9150600082019050919050565b6000610bd8600883610e9e565b91507f576169742031356d0000000000000000000000000000000000000000000000006000830152602082019050919050565b6000606083016000830151610c2360008601826109e0565b5060208301518482036020860152610c3b8282610a73565b9150506040830151610c506040860182610c5b565b508091505092915050565b610c6481610f37565b82525050565b610c7381610f37565b82525050565b6000610c8482610bb1565b9150819050919050565b60006020820190508181036000830152610ca881846109fe565b905092915050565b60006020820190508181036000830152610cca8184610aac565b905092915050565b60006040820190508181036000830152610cec8185610aac565b9050610cfb60208301846109ef565b9392505050565b60006040820190508181036000830152610d1c8185610aac565b9050610d2b6020830184610c6a565b9392505050565b60006020820190508181036000830152610d4b81610ae5565b9050919050565b60006020820190508181036000830152610d6b81610b4b565b9050919050565b60006020820190508181036000830152610d8b81610bcb565b9050919050565b6000602082019050610da76000830184610c6a565b92915050565b6000604082019050610dc26000830185610c6a565b8181036020830152610dd48184610aac565b90509392505050565b6000604051905081810181811067ffffffffffffffff82111715610e0457610e03611073565b5b8060405250919050565b600067ffffffffffffffff821115610e2957610e28611073565b5b601f19601f8301169050602081019050919050565b6000819050602082019050919050565b600081519050919050565b600081519050919050565b6000602082019050919050565b600082825260208201905092915050565b600081905092915050565b600082825260208201905092915050565b600082825260208201905092915050565b6000610eba82610f37565b9150610ec583610f37565b9250827fffffffffffffffffffffffffffffffffffffffffffffffffffffffffffffffff03821115610efa57610ef9610fe6565b5b828201905092915050565b6000610f1082610f17565b9050919050565b600073ffffffffffffffffffffffffffffffffffffffff82169050919050565b6000819050919050565b82818337600083830152505050565b60005b83811015610f6e578082015181840152602081019050610f53565b83811115610f7d576000848401525b50505050565b60006002820490506001821680610f9b57607f821691505b60208210811415610faf57610fae611044565b5b50919050565b6000610fc082610f37565b9150610fcb83610f37565b925082610fdb57610fda611015565b5b828206905092915050565b7f4e487b7100000000000000000000000000000000000000000000000000000000600052601160045260246000fd5b7f4e487b7100000000000000000000000000000000000000000000000000000000600052601260045260246000fd5b7f4e487b7100000000000000000000000000000000000000000000000000000000600052602260045260246000fd5b7f4e487b7100000000000000000000000000000000000000000000000000000000600052604160045260246000fd5b6000601f19601f8301169050919050565b6110bc81610f05565b81146110c757600080fd5b5056fea2646970667358221220cdc8be4ff986da05af4a45d0dc906bf567cb85ab97b9827b3ba2f188178edc1564736f6c63430008000033",
  "linkReferences": {},
  "deployedLinkReferences": {}
}